{
  "contractName": "Bet",
  "abi": [
    {
      "payable": true,
      "stateMutability": "payable",
      "type": "fallback"
    },
    {
      "constant": false,
      "inputs": [
        {
          "name": "_guess",
          "type": "uint256"
        }
      ],
      "name": "createBet",
      "outputs": [],
      "payable": true,
      "stateMutability": "payable",
      "type": "function",
      "signature": "0xac793a60"
    },
    {
      "constant": false,
      "inputs": [
        {
          "name": "_guess",
          "type": "uint256"
        }
      ],
      "name": "takeBet",
      "outputs": [],
      "payable": true,
      "stateMutability": "payable",
      "type": "function",
      "signature": "0xc511a074"
    },
    {
      "constant": false,
      "inputs": [],
      "name": "payout",
      "outputs": [],
      "payable": true,
      "stateMutability": "payable",
      "type": "function",
      "signature": "0x63bd1d4a"
    },
    {
      "constant": true,
      "inputs": [],
      "name": "getBetAmount",
      "outputs": [
        {
          "name": "",
          "type": "uint256"
        }
      ],
      "payable": false,
      "stateMutability": "view",
      "type": "function",
      "signature": "0xfde41e29"
    },
    {
      "constant": true,
      "inputs": [],
      "name": "getOriginatorGuess",
      "outputs": [
        {
          "name": "",
          "type": "uint256"
        }
      ],
      "payable": false,
      "stateMutability": "view",
      "type": "function",
      "signature": "0xe7871098"
    },
    {
      "constant": true,
      "inputs": [],
      "name": "getTakerGuess",
      "outputs": [
        {
          "name": "",
          "type": "uint256"
        }
      ],
      "payable": false,
      "stateMutability": "view",
      "type": "function",
      "signature": "0x0c4fb5fb"
    },
    {
      "constant": true,
      "inputs": [],
      "name": "getPot",
      "outputs": [
        {
          "name": "",
          "type": "uint256"
        }
      ],
      "payable": false,
      "stateMutability": "view",
      "type": "function",
      "signature": "0x403c9fa8"
    },
    {
      "constant": true,
      "inputs": [],
      "name": "getBetOutcome",
      "outputs": [
        {
          "name": "description",
          "type": "string"
        },
        {
          "name": "originatorKey",
          "type": "string"
        },
        {
          "name": "originatorStatus",
          "type": "uint256"
        },
        {
          "name": "takerKey",
          "type": "string"
        },
        {
          "name": "takerStatus",
          "type": "uint256"
        }
      ],
      "payable": false,
      "stateMutability": "view",
      "type": "function",
      "signature": "0xc2bea159"
    }
  ],
  "bytecode": "0x608060405234801561001057600080fd5b50610e7f806100206000396000f3fe60806040526004361061008e576000357c0100000000000000000000000000000000000000000000000000000000900463ffffffff1680630c4fb5fb14610090578063403c9fa8146100bb57806363bd1d4a146100e6578063ac793a60146100f0578063c2bea1591461011e578063c511a07414610294578063e7871098146102c2578063fde41e29146102ed575b005b34801561009c57600080fd5b506100a5610318565b6040518082815260200191505060405180910390f35b3480156100c757600080fd5b506100d0610331565b6040518082815260200191505060405180910390f35b6100ee610359565b005b61011c6004803603602081101561010657600080fd5b8101908080359060200190929190505050610675565b005b34801561012a57600080fd5b5061013361088c565b60405180806020018060200186815260200180602001858152602001848103845289818151815260200191508051906020019080838360005b8381101561018757808201518184015260208101905061016c565b50505050905090810190601f1680156101b45780820380516001836020036101000a031916815260200191505b50848103835288818151815260200191508051906020019080838360005b838110156101ed5780820151818401526020810190506101d2565b50505050905090810190601f16801561021a5780820380516001836020036101000a031916815260200191505b50848103825286818151815260200191508051906020019080838360005b83811015610253578082015181840152602081019050610238565b50505050905090810190601f1680156102805780820380516001836020036101000a031916815260200191505b509850505050505050505060405180910390f35b6102c0600480360360208110156102aa57600080fd5b8101908080359060200190929190505050610b41565b005b3480156102ce57600080fd5b506102d7610bf4565b6040518082815260200191505060405180910390f35b3480156102f957600080fd5b50610302610c0d565b6040518082815260200191505060405180910390f35b600061032333610c22565b600060060160000154905090565b600061033c33610c22565b3073ffffffffffffffffffffffffffffffffffffffff1631905090565b61036233610c22565b600360006003016002015414801561038257506003600060060160020154145b1561047257600060030160010160009054906101000a900473ffffffffffffffffffffffffffffffffffffffff1673ffffffffffffffffffffffffffffffffffffffff166108fc60008001549081150290604051600060405180830381858888f193505050501580156103f9573d6000803e3d6000fd5b50600060060160010160009054906101000a900473ffffffffffffffffffffffffffffffffffffffff1673ffffffffffffffffffffffffffffffffffffffff166108fc60008001549081150290604051600060405180830381858888f1935050505015801561046c573d6000803e3d6000fd5b50610673565b600160006003016002015414156104fe57600060030160010160009054906101000a900473ffffffffffffffffffffffffffffffffffffffff1673ffffffffffffffffffffffffffffffffffffffff166108fc60026000800154029081150290604051600060405180830381858888f193505050501580156104f8573d6000803e3d6000fd5b50610672565b6001600060060160020154141561058a57600060060160010160009054906101000a900473ffffffffffffffffffffffffffffffffffffffff1673ffffffffffffffffffffffffffffffffffffffff166108fc60026000800154029081150290604051600060405180830381858888f19350505050158015610584573d6000803e3d6000fd5b50610671565b600060030160010160009054906101000a900473ffffffffffffffffffffffffffffffffffffffff1673ffffffffffffffffffffffffffffffffffffffff166108fc60008001549081150290604051600060405180830381858888f193505050501580156105fc573d6000803e3d6000fd5b50600060060160010160009054906101000a900473ffffffffffffffffffffffffffffffffffffffff1673ffffffffffffffffffffffffffffffffffffffff166108fc60008001549081150290604051600060405180830381858888f1935050505015801561066f573d6000803e3d6000fd5b505b5b5b565b60a06040519081016040528034815260200160008152602001600281526020016060604051908101604052808481526020013373ffffffffffffffffffffffffffffffffffffffff1681526020016004815250815260200160606040519081016040528060008152602001600073ffffffffffffffffffffffffffffffffffffffff1681526020016001815250815250600080820151816000015560208201518160010155604082015181600201556060820151816003016000820151816000015560208201518160010160006101000a81548173ffffffffffffffffffffffffffffffffffffffff021916908373ffffffffffffffffffffffffffffffffffffffff1602179055506040820151816002015550506080820151816006016000820151816000015560208201518160010160006101000a81548173ffffffffffffffffffffffffffffffffffffffff021916908373ffffffffffffffffffffffffffffffffffffffff1602179055506040820151816002015550509050506060604051908101604052808281526020013373ffffffffffffffffffffffffffffffffffffffff168152602001600481525060006003016000820151816000015560208201518160010160006101000a81548173ffffffffffffffffffffffffffffffffffffffff021916908373ffffffffffffffffffffffffffffffffffffffff1602179055506040820151816002015590505050565b606080600060606000600360006003016002015414806108b457506003600060060160020154145b1561094357608060405190810160405280604681526020017f426f746820626574732077657265207468652073616d65206f7220776572652081526020017f6f76657220746865206e756d6265722c2074686520706f742077696c6c20626581526020017f2073706c697400000000000000000000000000000000000000000000000000008152509450610ab4565b600160006003016002015414156109de57608060405190810160405280604681526020017f426574206f726967696e61746f722067756573732077617320636c6f7365722081526020017f746f20746865206e756d62657220616e642077696c6c2072656365697665207481526020017f686520706f7400000000000000000000000000000000000000000000000000008152509450610ab3565b60016000600601600201541415610a7957608060405190810160405280604181526020017f4265742074616b65722067756573732077617320636c6f73657220746f20746881526020017f65206e756d62657220616e642077696c6c20726563656976652074686520706f81526020017f74000000000000000000000000000000000000000000000000000000000000008152509450610ab2565b6040805190810160405280601381526020017f556e6b6e6f776e20426574204f7574636f6d650000000000000000000000000081525094505b5b5b6040805190810160405280600a81526020017f6f726967696e61746f7200000000000000000000000000000000000000000000815250935060006003016002015492506040805190810160405280600581526020017f74616b6572000000000000000000000000000000000000000000000000000000815250915060006006016002015490509091929394565b600080015434141515610b5357600080fd5b6060604051908101604052808281526020013373ffffffffffffffffffffffffffffffffffffffff168152602001600481525060006006016000820151816000015560208201518160010160006101000a81548173ffffffffffffffffffffffffffffffffffffffff021916908373ffffffffffffffffffffffffffffffffffffffff16021790555060408201518160020155905050610bf1610ce5565b50565b6000610bff33610c22565b600060030160000154905090565b6000610c1833610c22565b6000800154905090565b600060030160010160009054906101000a900473ffffffffffffffffffffffffffffffffffffffff1673ffffffffffffffffffffffffffffffffffffffff168173ffffffffffffffffffffffffffffffffffffffff161480610cd75750600060060160010160009054906101000a900473ffffffffffffffffffffffffffffffffffffffff1673ffffffffffffffffffffffffffffffffffffffff168173ffffffffffffffffffffffffffffffffffffffff16145b1515610ce257600080fd5b50565b6001600a600143034060019004811515610cfb57fe5b060160006001018190555060036000600201819055506000600601600001546000600301600001541415610d4a5760036000600301600201819055506003600060060160020181905550610e51565b600060010154600060030160000154118015610d725750600060010154600060060160000154115b15610d985760036000600301600201819055506003600060060160020181905550610e50565b60006006016000015460006001015403600060030160000154600060010154031015610ddf5760016000600301600201819055506002600060060160020181905550610e4f565b60006003016000015460006001015403600060060160000154600060010154031015610e265760026000600301600201819055506001600060060160020181905550610e4e565b6004600060030160020181905550600460006006016002018190555060046000600201819055505b5b5b5b56fea165627a7a72305820129903c63b32522f1a29e64e37330f5837ea5de09b0586edbe3d4b3de12bd45c0029",
  "source": "pragma solidity 0.5.0;\n\ncontract Bet {\n\t//jedi bet status\n\tuint constant STATUS_WIN = 1;\n\tuint constant STATUS_LOSE = 2;\n\tuint constant STATUS_TIE = 3;\n\tuint constant STATUS_PENDING = 4;\n\n\t//game status\n\tuint constant STATUS_NOT_STARTED = 1;\n\tuint constant STATUS_STARTED = 2;\n\tuint constant STATUS_COMPLETE = 3;\n\n\t//general status\n\tuint constant STATUS_ERROR = 4;\n\n\t//the 'better' structure\n\tstruct JediBet {\n\t\tuint guess;\n\t\taddress payable addr;\n\t\tuint status;\n\t}\n\n\t//the 'game' structure\n\tstruct Game {\n\t\tuint256 betAmount;\n\t\tuint outcome;\n\t\tuint status;\n\t\tJediBet originator;\n\t\tJediBet taker;\n\t}\n\n\t//the game\n\tGame game;\n\n//fallback function\nfunction() external payable {}\n\nfunction createBet(uint _guess) public payable {\n\tgame = Game(msg.value, 0, STATUS_STARTED, JediBet(_guess, msg.sender, STATUS_PENDING), JediBet(0, address(0), STATUS_NOT_STARTED));\n\tgame.originator = JediBet(_guess, msg.sender, STATUS_PENDING);\n}\n\nfunction takeBet(uint _guess) public payable { \n\t//requires the taker to make the same bet amount     \n\trequire(msg.value == game.betAmount);\n\tgame.taker = JediBet(_guess, msg.sender, STATUS_PENDING);\n\tgenerateBetOutcome();\n}\n\nfunction payout() public payable {\n\n\tcheckPermissions(msg.sender);\n\t\n\tif (game.originator.status == STATUS_TIE && game.taker.status == STATUS_TIE) {\n\tgame.originator.addr.transfer(game.betAmount);\n\tgame.taker.addr.transfer(game.betAmount);\n\t} else {\n\tif (game.originator.status == STATUS_WIN) {\n\t\tgame.originator.addr.transfer(game.betAmount*2);\n\t} else if (game.taker.status == STATUS_WIN) {\n\t\tgame.taker.addr.transfer(game.betAmount*2);\n\t} else {\n\t\tgame.originator.addr.transfer(game.betAmount);\n\t\tgame.taker.addr.transfer(game.betAmount);\n\t}\n\t}\n}\n\nfunction checkPermissions(address sender) view private {\n\t//only the originator or taker can call this function\n\trequire(sender == game.originator.addr || sender == game.taker.addr);  \n}\n\nfunction getBetAmount() public view returns (uint) {\n\tcheckPermissions(msg.sender);\n\treturn game.betAmount;\n}\n\n\tfunction getOriginatorGuess() public view returns (uint) {\n\tcheckPermissions(msg.sender);\n\treturn game.originator.guess;\n\t}\n\n\tfunction getTakerGuess() public view returns (uint) {\n\tcheckPermissions(msg.sender);\n\treturn game.taker.guess;\n\t}\n\n\tfunction getPot() public view returns (uint256) {\n\tcheckPermissions(msg.sender);\n\treturn address(this).balance;\n\t}\n\nfunction generateBetOutcome() private {\n\t//todo - not a great way to generate a random number but ok for now\n\tgame.outcome = uint(blockhash(block.number-1))%10 + 1;\n\tgame.status = STATUS_COMPLETE;\n\n\tif (game.originator.guess == game.taker.guess) {\n\t\tgame.originator.status = STATUS_TIE;\n\t\tgame.taker.status = STATUS_TIE;\n\t} else if (game.originator.guess > game.outcome && game.taker.guess > game.outcome) {\n\t\tgame.originator.status = STATUS_TIE;\n\t\tgame.taker.status = STATUS_TIE;\n\t} else {\n\t\tif ((game.outcome - game.originator.guess) < (game.outcome - game.taker.guess)) {\n\t\t\tgame.originator.status = STATUS_WIN;\n\t\t\tgame.taker.status = STATUS_LOSE;\n\t\t} else if ((game.outcome - game.taker.guess) < (game.outcome - game.originator.guess)) {\n\t\t\tgame.originator.status = STATUS_LOSE;\n\t\t\tgame.taker.status = STATUS_WIN;\n\t\t} else {\n\t\t\tgame.originator.status = STATUS_ERROR;\n\t\t\tgame.taker.status = STATUS_ERROR;\n\t\t\tgame.status = STATUS_ERROR;\n\t\t}\n\t}\n}\n\n\t//returns - [<description>, 'originator', <originator status>, 'taker', <taker status>]\n\tfunction getBetOutcome() public view returns\n\t(string memory description, string memory originatorKey, uint originatorStatus, string memory takerKey, uint takerStatus) \n\t{\n\tif (game.originator.status == STATUS_TIE || game.taker.status == STATUS_TIE) {\n\t\tdescription = \"Both bets were the same or were over the number, the pot will be split\";\n\t} else {\n\t\tif (game.originator.status == STATUS_WIN) {\n\t\t\tdescription = \"Bet originator guess was closer to the number and will receive the pot\";\n\t\t} else if (game.taker.status == STATUS_WIN) {\n\t\t\tdescription = \"Bet taker guess was closer to the number and will receive the pot\";\n\t\t} else {\n\t\t\tdescription = \"Unknown Bet Outcome\";\n\t\t}\n\t}\n\toriginatorKey = \"originator\";\n\toriginatorStatus = game.originator.status;\n\ttakerKey = \"taker\";\n\ttakerStatus = game.taker.status;\n\t}\n}",
  "sourcePath": "/home/jovan/Documents/Tezga/smart-contract-bet/contract/contracts/Bet.sol",
  "compiler": {
    "name": "solc",
    "version": "0.5.0+commit.1d4f565a.Emscripten.clang"
  },
  "schemaVersion": "3.0.2",
  "updatedAt": "2019-03-14T15:48:36.028Z",
  "devdoc": {
    "methods": {}
  },
  "userdoc": {
    "methods": {}
  }
}